:020000040800F2
:10000000D0060020810100084B0B0008490B0008B6
:1000100000000000000000000000000000000000E0
:100020000000000000000000000000004F0B00086E
:1000300000000000000000004D0B0008510B0008FC
:100040009301000893010008930100089301000840
:100050009301000893010008930100089301000830
:100060009301000893010008930100089301000820
:100070009301000893010008930100089301000810
:100080009301000893010008930100089301000800
:1000900093010008930100089301000893010008F0
:1000A00093010008930100089301000893010008E0
:1000B00093010008930100089301000893010008D0
:1000C00000F002F800F04CF812A030C808382418EC
:1000D0002D18AC4201D100F043F80FCCA246AB463C
:1000E0000CA730CF2D1B083F3F197C427F1E544484
:1000F0002D090426F441641EAC4201D300F030F80F
:100100000126334200D0FB1A3343984754465D46DC
:10011000DFE700007C0E00009C0E0000103A02D3C6
:1001200078C878C1FAD8520701D330C830C101D598
:1001300004680C6070470000704700000023002432
:1001400000250026103A01D378C1FBD8520700D30E
:1001500030C100D50B6070471FB51FBD10B510BD75
:1001600000F0B4F91146FFF7F7FF00F0F7FC00F0DC
:10017000CCF903B4FFF7F2FF03BC00F0D3F90000A1
:100180000748804707480047FEE7FEE7FEE7FEE72F
:10019000FEE7FEE704480549054A064B70470000A4
:1001A000590B0008C1000008D0000020D006002034
:1001B000D0020020D0020020704770477047000036
:1001C00030B50346CA02400D1043164D164C0A15B1
:1001D00002D02043002A06DBAA1A002A12DDD040F2
:1001E000FF2A0BDC30BD5205520D01D14000400802
:1001F000AA1A07D4D0404042FF2A01DD002030BDBA
:100200000028FCDD4A00002B01D0012000E0002086
:10021000101801225205D042F0D8C817C0436040E0
:1002200030BD00001E040000000000801F22030CEF
:1002300002D10F22000402D0030E03D004E00020FC
:10024000014670470002083A030F01D10001121F56
:10025000830F01D18000921E002801DB4000521E56
:10026000120551184205C012411810467047C10FBF
:10027000C90700D04042012292071143D6E701216D
:100280008907D3E7F0B58B4C0F09254689B0BD43EC
:100290007BD01D092646AE43FAD00E465E4027406D
:1002A000F60F3E43254071D024012142FBD0FF24AC
:1002B000AD19A4042D1B039501252D05DB02DB0AD6
:1002C000C9022B43C90A29431E010901040F130F58
:1002D000050121431701880B820391432D098C46A8
:1002E000A90B1E438A039543B30B9A0396433F0918
:1002F000BA0B9403A74302962E467E430497B64654
:100300004E19D7190C460196544305977E43371B67
:100310007646BF1B3601B646BE0B361900967646AA
:10032000BC043719009C01D3641C00946400002FA6
:1003300001D001263443029E049F754366467E43E6
:100340000496760034196E0034190094029C019EC4
:100350001C196643751BAE46069465464519059CF7
:1003600005956C43594375460891691A0191049E9D
:1003700001465143A41B0491611A009C0791E106B8
:1003800005D061090122114302E072E06EE06109CB
:10039000089D00272C0A2D066918049D7C412A0A15
:1003A0002D066918019D6241AC0DAD026D185441D6
:1003B000079A910D920255196141029A6446584379
:1003C0005443069B059A5A43121A131B9A0E9B011B
:1003D0005B187A41010B0005C3185141220A20061F
:1003E00044195A419A4200D2491C012040028142DC
:1003F00003D315230226F64302E014230326F64313
:100400002020C51AA9401746AF40DA400A432046CB
:100410000399D8400914731819055118039A3843E1
:10042000D2075140AC4009D00122944006D30022AB
:10043000401C5141002C01D1400840001E4A93420B
:1004400012D3012203989206904207DB0520400751
:1004500009181A480143C012414004E00320400734
:100460000818C10FC907002009B0F0BD0020F1072E
:10047000FAE705180C464C4111486D42A04115D3CE
:1004800094181A465A410E48644290410ED30120F6
:100490004A004005824209D35A00824206D359409D
:1004A000C90F084AC90700201143DDE700200649AB
:1004B000DAE700000000FF07FE070000FFFFFF7FF4
:1004C0000000E0FF0000F07F0000F87F754600F0BC
:1004D00025F8AE46050069465346C008C00085466B
:1004E00018B020B5FFF756FE60BCB64600260027C0
:1004F000C0C5C0C5C0C5C0C5C0C5C0C5C0C5C0C5D4
:10050000403D490849008D46704710B50446C04635
:10051000C0462046FFF72DFE10BD00000048704782
:100520001000002001491820ABBEFEE726000200A3
:1005300070470000B0B5044600F0E0F80546601CC6
:1005400002D08C480078041900F0D8F8401BA04273
:10055000FAD3B0BDF0B589B001900A68002A00D185
:10056000B5E00D465B48019B834201D0052000E0C9
:1005700004201721C9065918890A9B0559180091AA
:10058000042900D3009000231C461F4607950AE06B
:10059000114331607F1C2A681046F8401B1DA41CC3
:1005A000002800D193E001260396BE403240F1D0EE
:1005B0000292069303200146A140C9436A6815468A
:1005C00005406B1E012B059213D804910199886890
:1005D000049B1840079BDB68A34003438B60D00655
:1005E000C00FB8404B68B3430E4604990343736091
:1005F00006E0032D019E03D10546069B029A20E0EA
:10060000F0680840079B9B68A3400343F360022DFA
:10061000069B029A15D11C20184004910F2181409D
:10062000FB089B00F3181D6A8D43079E31698140CA
:10063000294319620499069B7068019E0325059061
:100640000540A54030680840284330600598800385
:10065000800F079D9ED0CC490868039D2843086001
:100660000868284008900C2018400F21814003237F
:100670003D469D43089B194EAB598B4300998140E1
:100680001943A951079D144EB1686868C3020BD580
:100690001143B160F16883020BD49143F16071683A
:1006A00083030BD491430AE09143B160F168830264
:1006B000F3D51143F16071688303F3D51143069BB1
:1006C00071603168C00300D562E7914361E709B00A
:1006D000F0BDC04600100048000401400800014081
:1006E00000690840411E88417047002A02D0182244
:1006F00081507047282281507047000005480068EB
:100700007047C0461B48007802490A681018086004
:100710007047C046C800002080B506480168102216
:100720000A430260032000F007F800F027F80020D9
:1007300080BDC0460020024070B504467D20C00048
:100740000C4E317800F028FB01460B48006800F0A1
:1007500023FB00F043F80125032C08D8002806D11C
:100760000025E84321462A4600F01CF8746028461C
:1007700070BDC046000000200800002082B0824802
:100780000168012211430160016811400191019942
:10079000110742680A434260406808400090009890
:1007A00002B07047002805D40322034693430A4A47
:1007B0009A1803E00C220240064BD2188007C00EA4
:1007C0008901C9B28140FF238340106898430843E0
:1007D0001060704714ED00E000E400E0401E010EE0
:1007E00001D0012070470749074A50600748036855
:1007F0000B400321890759180160002090600721F0
:1008000011607047FFFFFF0010E000E020ED00E006
:1008100010B53C22825C012A01D1022010BD0246A3
:100820003C3202235370006843687024A3430C6871
:100830001C4383684460694CA04207DC0124A40780
:10084000A04209D0684CA04206D00AE0644CA04205
:1008500002D0644CA04204D18024A34349681943C8
:100860008160002010700121517010BD70B500280A
:1008700029D0044605463C356878002804D100207C
:100880002870204600F06CF80220687021680E681D
:1008900001208307994205D0524A914202D0524A20
:1008A000914219D170229643A26832434B4EB14215
:1008B00016DD264B994208DC4A4B994218D0484B2A
:1008C000994215D03FE0012070BD214B99420FD0D5
:1008D000204B99420CD036E03246404EB142E8DC23
:1008E000994205D0404B994202D01B4B99422AD1E4
:1008F00003231B029A432369134322463E32802678
:10090000B343A6691E430E60E368CB6263688B62E3
:10091000124BCB189B0A8E05F318072B06D80646F8
:100920009E40E1231E4201D063690B63486110724F
:10093000107050709070D070107150719071D071B3
:100940006870002070BD1346D7E7C046FF430140E2
:1009500000480140004401400020004000D4FEBF98
:1009600081B000681F49884201D001B07047012062
:10097000C00205490A6802430A6009680140009103
:10098000009801B07047C046181002403D21415CFC
:1009900001290FD101463D3102220A7000680F493A
:1009A000884209DC0121890788420BD00E49884220
:1009B00008D00CE0012070470949884202D0EF4975
:1009C000884204D1816807220A40062A03D00168C0
:1009D00001220A43026000207047C046FF2B0140FD
:1009E00000400140002C014000040040F0B53C22D2
:1009F000825C012A01D10220F0BD02463C32022372
:100A00005370504E3346773B0468A0681840A0608E
:100A10000D6800234F2D1EDC1F2D35DD202D37D016
:100A2000302D35D0402D00D086E0206A256A012681
:100A3000B5432562A569F026B543CE6836012E433D
:100A4000A6610A25A843496801432162A06847219D
:100A50000143302069E06F2D26DD01204703BD42B0
:100A600040D00003854218461AD0702D64D1A0688A
:100A700030404D688E68C9682E43090231430143F6
:100A8000A160A068772139E0002D01D0102D53D14D
:100A9000A06870218843054307202843A0601846BA
:100AA000137001215170F0BD502D29D0602D43D11C
:100AB0001020C043256A054025620F252D03A66935
:100AC000AE43CD682D033543266AA561A025AE430C
:100AD0004968090131432162A16867250D4305403A
:100AE000A56024E0A56835404E688F68C968374323
:100AF000090239432943A1608003A168014315E03D
:100B0000206A256A0126B5432562A569F026B5430A
:100B1000CE6836012E43A6610A25A84349680143E1
:100B20002162A0685721014320208143A16018461B
:100B3000137001215170F0BD01201370012151701B
:100B4000F0BDC046FF00FFFFFEE7FEE770477047BD
:100B500080B5FFF7D7FD80BD704700008CB0FFF770
:100B6000DBFD0026099608960127B805804A116822
:100B700001431160116801400A910A9878041168D4
:100B800001431160116801400A910A980920C406C6
:100B90007D02204629463246FFF7A7FD03960796B9
:100BA00006963E02059605A902912046FFF7D2FC63
:100BB000039808900790019706970595204602999B
:100BC000FFF7C8FC6B4F6C482F216C4A3A61796182
:100BD0000399B961F86139627962B9620891079144
:100BE00006910B910A91384610300390FFF73EFEB4
:100BF000002803D0EFF3108072B6FEE701980003DF
:100C0000059005A90398FFF7F1FE002803D0EFF344
:100C1000108072B6FEE70AA90398FFF7F9FD0028D5
:100C200003D0EFF3108072B6FEE70398FFF7AEFE35
:100C30000022204629460392FFF757FD0198C00481
:100C40004B4A116801431160052003044C480146DA
:100C500014390A681A430A60014610390A68494B78
:100C60001A400A6001460C390A68474B1A400A606C
:100C7000014608390A681A400A600168414A114071
:100C800001600F208002216881432160152000024D
:100C9000216801432160606910210191084360616E
:100CA00020200090C043029004950EE0344908686B
:100CB0006840086002980199626902406261606957
:100CC000084360613220FFF735FC012220462946A7
:100CD000FFF70BFD386903994162416A092908D879
:100CE000416A092905D8416A092902D8416A0A29B5
:100CF000F3D3002220462946FFF7F7FCFFF7FEFC5E
:100D0000F86020463146FFF7EBFC002805D1FD686E
:100D10000A35FFF7F3FC8542F3D83869406A7860FA
:100D2000FFF7ECFCF86020463146FFF7D9FC0028BD
:100D300005D0FD683235FFF7E1FC8542F3D838690C
:100D4000406AB8607968401AFFF799FA0F4A104B69
:100D5000FFF798FA00220F4BFFF794FAFFF730FAEB
:100D600038800128049DA1D9029810300099A3E78A
:100D70001410024070000020FFFF0000002C014012
:100D800014080048FFFCFFFFFFFFF0FF9CC420B0E9
:100D90007268A13F0000E03F43088B421AD3002253
:100DA00003098B4279D3030A8B425ED3030B8B4238
:100DB00042D3030C8B4227D30902FF2212BA030C41
:100DC0008B4202D31212090203D0030B8B4233D39E
:100DD0001AE0D3E0411A8041401C704703460B43A0
:100DE00071D443088B42F5D3002203098B4254D3BC
:100DF000030A8B4239D3030B8B421DD3030C8B4266
:100E000002D394466EE0090AC30B8B4201D3CB0395
:100E1000C01A5241830B8B4201D38B03C01A52413B
:100E2000430B8B4201D34B03C01A5241030B8B423D
:100E300001D30B03C01A5241C30A8B4201D3CB0228
:100E4000C01A5241830A8B4201D38B02C01A52410D
:100E5000430A8B4201D34B02C01A5241030A8B4210
:100E600001D30B02C01A5241CDD2C3098B4201D328
:100E7000CB01C01A524183098B4201D38B01C01AA6
:100E8000524143098B4201D34B01C01A524103091D
:100E90008B4201D30B01C01A5241C3088B4201D3CC
:100EA000CB00C01A524183088B4201D38B00C01A79
:100EB000524143088B4201D34B00C01A5241411AA0
:100EC000524110007047CA0F00D04942031000D3AE
:100ED0004042534000229C4603098B422DD3030A13
:100EE0008B4212D38901FC2212BA030A8B420CD323
:100EF000890192118B4208D3890192118B4204D34C
:100F0000890137D0921100E08909C3098B4201D3CE
:100F1000CB01C01A524183098B4201D38B01C01A05
:100F2000524143098B4201D34B01C01A524103097C
:100F30008B4201D30B01C01A5241C3088B4201D32B
:100F4000CB00C01A524183088B4201D38B00C01AD8
:100F50005241D9D243088B4201D34B00C01A5241AF
:100F6000411A00D201465241104663465B1000D33D
:100F70004042704763465B1000D3404201B50021F8
:100F8000004201D0C9430846C046C04602BD000029
:100F9000B00F000800000020100000001C01000835
:100FA000C00F000810000020C00600003C0100082F
:100FB000010000000400000000127A0000000000A0
:04000005080000C12E
:00000001FF
